S0180000476363426F61726450726F6A656374312E737265630F
S214400000103900207906400075064000750640000D
S214400010750640007506400075064000000000006A
S21440002000000000000000000000000075064000D0
S214400030750640000000000075064000750640004A
S214400040750640007506400075064000750640007F
S214400050750640007506400075064000750640006F
S214400060750640007506400000000000E5054000AB
S214400070F90540000D064000750640007506400034
S21440008000000000000000007506400075064000B5
S214400090750640007506400075064000750640002F
S2144000A0750640007506400075064000750640001F
S2144000B0750640007506400075064000750640000F
S2144000C075064000750640007506400010B5054CA4
S2144000D0237833B9044B13B10448AFF300800123AF
S2144000E0237010BD3C08002000000000EC104000CB
S2144000F0084B10B51BB108490848AFF300800848C4
S214400100036803B910BD074B002BFBD0BDE8104079
S214400110184700BF0000000040080020EC104000D8
S214400120EC1040000000000038B54FF40042464B4B
S2144001305A600B20454CA0470C20A0470D20A047F6
S2144001404FF060511320424CA0474FF060511420AE
S214400150A04740492320A0473F494C20A0474FF0A6
S21440016000624FF4C0613D483D4B98474FF0805188
S2144001700020A0474FF080510820A0474FF0805104
S2144001805220A0474FF000610C20A0474FF000617E
S2144001900D20A0474FF000610E20A0474FF00061B1
S2144001A00B20A0474FF000611520A0474FF000619C
S2144001B01620A0474FF040511720A0471720294B44
S2144001C09847294D29464020A04729464120A04728
S2144001D029464220A04729464320A0472946442096
S2144001E0A04729464520A04729464620A0472946FD
S2144001F04720A04729464B20A04729464820A047ED
S21440020029464F20A04729465320A0474FF040514B
S2144002104D20A04705F1005529461020A047294605
S2144002201120A0474FF000610C20A0474FF000611E
S2144002300D20A0474FF000610E20A0474FF0006110
S2144002400B20A04738BD00BF50140E40210640008A
S2144002507D0340007900002859000028000E0E401B
S214400260A104400061034000010000084264B1F16F
S214400270C05F2FD007D8B1F1006F14D0B1F1805FC6
S2144002801ED039B97047B1F1205F36D004D8B1F1ED
S214400290005F29D042607047B1F1405F2DD0B1F188
S2144002A0605F2AD0F6E710B4046F016FD343214055
S2144002B019400167446F416F21400B4043671AE085
S2144002C0036F13430367416F436F0B4023EA0203F8
S2144002D04367DFE7016F036F0B4023EA02030367C0
S2144002E0436F13434367D5E7036F13430367436F77
S2144002F013434367CEE7426010BC7047416412F038
S214400300010F14BF4166016612F00A0F14BF016266
S214400310416212F0020F02D0C0F8801004E012F0E2
S214400320080F18BFC0F8841041610160704700BFD5
S21440033010B44164019C0CB1416600E001660BB10B
S214400340016500E041650AB1016300E04163016177
S214400350016010BC704700BFC06C7047806C70472F
S214400360430903F5001303F207735B0200F01F0016
S214400370012202FA00F05863704700BF70B582B0A1
S2144003800D46430903F5001303F207735C0201F0C0
S214400390F043B3F1005F47D009D8B3F1805F21D076
S2144003A0B3F1C05F2FD0B3F1006F6FD109E0B3F166
S2144003B0405F55D0B3F1605F52D0B3F1205F44D078
S2144003C064E000F01F000126864032464FF0006190
S2144003D02046304B984715F0010F14BF66662666D8
S2144003E0012054E000F01F000126864032464FF0C0
S2144003F080512046274B984715F0010F14BF66667C
S2144004002666012043E000F01F0001268640324663
S2144004104FF0C05120461F4B984715F0010F14BFB0
S21440042066662666012032E000F01F000126864000
S21440043032464FF000512046164B984715F0010FB4
S21440044014BF66662666012021E000F01F010126E3
S2144004502A4606FA01F120460F4B9847304616E0EA
S21440046005F0605200F01F01012605EA06030093DE
S214400470C5F38003B2F1605F14BF0022012206FA82
S21440048001F12046054CA047304600E0002002B06F
S21440049070BD00BF6D024000FD02400031034000C9
S2144004A070B582B005460E46144602F0F043B3F1EE
S2144004B0005F38D009D8B3F1805F1CD0B3F1C05F7D
S2144004C025D0B3F1006F50D109E0B3F1405F3AD088
S2144004D0B3F1605F37D0B3F1205F30D045E00A46D5
S2144004E04FF00061224B984714F0010F14BF6E6620
S2144004F02E6601203AE00A464FF080511C4B984742
S21440050014F0010F14BF6E662E6601202EE00A46D8
S2144005104FF0C051164B984714F0010F14BF6E664B
S2144005202E66012022E00A464FF00051104B9847B5
S21440053014F0010F14BF6E662E66012016E00D4BB8
S2144005409847012012E004F0605204F00103009343
S214400550C4F38003B2F1605F14BF0022012231462B
S2144005602846054CA047012000E0002002B070BDA0
S2144005706D024000FD024000310340002DE9F84383
S21440058081468846124B984705464846114B984741
S214400590054013D0104C04F160062368434508D14B
S2144005A06168294205D0E36840469847636825EA73
S2144005B00305B44202D01034002DEED1074B1B6821
S2144005C023B1074B1B680BB148469847BDE8F883F4
S2144005D0590340005D0340005C08002004090020E9
S2144005E05808002008B50B210148024B984708BD23
S2144005F0000E0E407D05400008B50C210148024B18
S214400600984708BD00100E407D05400008B50D21F6
S2144006100148024B984708BD00120E407D05400039
S21440062022281ED81F280CD8114B9A6901238340D4
S214400630934318D0012303FA00F00D4B18610020B5
S214400640704720380A4BD3F8082101238340934350
S2144006500BD0012303FA00F0054BC3F8000100203D
S214400660704701207047002070470020704700BF49
S21440067000040E40FEE700BF08B5204B204A9A42D1
S21440068012D9204B1D4A9A421ED21146013B9B1A54
S21440069023F0030304331A4A134452F8040B41F878
S2144006A0040B9A42F9D10FE0144B154A9A420BD2EA
S2144006B0144B124A9A1A144811182AB151F80429B0
S2144006C043F8042D8142F9D100BF104B104A9A429C
S2144006D00BD2131D0F4AD21A22F003021A44043BCF
S2144006E0002143F8041B9A42FBD10B4B0B4A9A60FD
S2144006F00B4B98470B4B9847FEE700BF0000002087
S214400700EC1040003C080020E81040000C09002097
S2144007103C0800200F09002000ED00E000004000EB
S2144007206D0740005D074000094B1B6813B9094A36
S214400730074B1A60064B1B681A180749914204DBA0
S2144007401046034A1060184670474FF0FF30704717
S214400750CC08002010390020FC7F022008B5024B50
S2144007609847002008BD00BF2901400070B50F4ED5
S2144007700F4D761BB61018BF002405D0013455F82F
S214400780043B9847A642F9D10A4E0B4D761B00F023
S2144007909BFCB61018BF002406D0013455F8043B25
S2144007A09847A642F9D170BD70BD00BFD410400036
S2144007B0D4104000DC104000D4104000024B13B16F
S2144007C0024800F005B8704700000000DD07400012
S2144007D0002301461A46184600F020BC38B5074D9F
S2144007E0074C2C1BA41005D0013C55F8043D9847F7
S2144007F0002CF9D1BDE8384000F070BCEC10400049
S214400800E8104000F8B5234F0C46064600F0F0FBD3
S214400810BB685D6825F00305291B01F6EF7121F4DE
S2144008207F6121F00F01A1F58054B4F5805F07DBAE
S2144008300021304600F0E0FBBB682B44984204D0D1
S214400840304600F0D7FB0020F8BD6142304600F04D
S214400850D3FB01300DD0104BBA6819682D1B45F0FC
S21440086001053046091B5560196000F0C3FB0120A6
S214400870F8BD0021304600F0BFFBBA68831A0F2B44
S214400880DEDD064C0449246843F00103001B536038
S2144008900860D5E72C040020DC080020380800203B
S2144008A0002945D02DE9F0410D46804600F0A0FBDA
S2144008B055F8047C6A4927F00103A5F10804E218BC
S2144008C08E685068B24220F0030062D0FE07506047
S2144008D00BD455F8087CE41B01F1080EA568754555
S2144008E03B446FD0E768EF60BD6015186D68ED0754
S2144008F042D543F001026260E350B3F5007F18D260
S214400900DB085A1C4D6851F83270A76001209B10D6
S21440091000FA03F301EBC2001D430838E0604D6067
S21440092041F83240FC604046BDE8F04100F062BB12
S21440093070475A0A042A53D89A0902F139077F00A9
S21440094002F1380501EB870051F827204449083862
S21440095090424DD0516821F003018B4202D29268FA
S2144009609042F7D1D068E060A2608460D460404690
S214400970BDE8F04100F03EBB95683A4FBD420344A7
S2144009803FD0D068E86043F0010285606260E35083
S214400990B3E7FF07034407D455F8082CA41A1344BA
S2144009A0A068E268C26090602F4A126843F0010077
S2144009B0934260608C60B6D32C4B40461968FFF774
S2144009C021FFB0E711184968C90744D49168D26836
S2144009D0CA60034443F0010091606060E350A2E7C0
S2144009E0142A17D802F15C077F0002F15B05A9E7DD
S2144009F0AA104B68012505FA02F213434B600246E3
S214400A00B1E743F001024C610C61E560A5606260AD
S214400A10E35088E7542A06D81A0B02F16F077F0086
S214400A2002F16E058EE7B2F5AA7F06D8DA0B02F120
S214400A3078077F0002F1770584E740F254508242FF
S214400A4006D89A0C02F17D077F0002F17C0579E713
S214400A50FE277E2576E743F001026260E35062E7B8
S214400A602C0400203404002034080020D80800203D
S214400A70024B0146186800F003B800BF2804002067
S214400A802DE9F04F01F10B05162D83B0064640F2D6
S214400A909F8035F0070500F1BF80A94200F2BC8078
S214400AA000F0A6FAB5F5FC7FC0F09C826B0A00F019
S214400AB0BA80042B00F28381A80900F1390E4FEA70
S214400AC04E033830C44F07EB8303A3F108015C683C
S214400AD0A14207D1ACE0002A80F2AC80E468A14293
S214400AE000F0A680636823F003035A1B0F2AF2DD4A
S214400AF0B9493C6901F1080E744500F0B38163685A
S214400B0023F003035A1B0F2A00F39981002AC1F8E9
S214400B1014E0C1F810E080F29E80B3F5007F80F0CC
S214400B206781DB0803F1010C01229B1002FA03F3F4
S214400B304A6851F83C80C4F8088001EBCC091A4357
S214400B40A9F10803E3604A6041F83C40C8F80C400D
S214400B50831001249C40944200F28A80144206D1BD
S214400B6020F003006400144200F10400FAD007EBC2
S214400B70C009CC468046DCF80C108C4507D173E1A2
S214400B80002A80F28181C9688C4500F06D814B68EF
S214400B9023F003035A1B0F2AF2DD0C46D1F80CC093
S214400BA054F8088F4B1945F001054D6042F001019D
S214400BB0C8F80CC03046CCF808807B613B61C3F86F
S214400BC00CE0C3F808E059609A5000F013FA1FE0B2
S214400BD0102921D800F00CFA1025062302207E4F5B
S214400BE007EB8303A3F108025C68944200F045815A
S214400BF06368E168A56823F00303234430465A68D7
S214400C00E96042F001028D605A6000F0F3F9083462
S214400C10204603B0BDE8F08F00240C232046336006
S214400C2003B0BDE8F08F80234FF0400E3F2049E7E9
S214400C3070465DE72344E1685A68A56842F00102C1
S214400C40E96030468D605A6000F0D4F9083420469A
S214400C5003B0BDE8F08F234430465A6842F00102A4
S214400C605A6000F0C7F90834204603B0BDE8F08F5C
S214400C70BC68636823F00308A84504D3C5EB0803A3
S214400C800F2B00F38C80554BDFF860911A68D9F82B
S214400C90003001332A4404EB080A00F0608102F574
S214400CA080520F3222F47F6222F00F021146304605
S214400CB0019200F0A1F9B0F1FF3F8346019A00F09F
S214400CC05881824500F2FC80454B1968DA4511444C
S214400CD0196000F05381D9F80000DFF810E10130C8
S214400CE01BBFCAEB0B0A5144CEF800B019601BF08C
S214400CF0070100F01781C1F10800C1F58051834417
S214400D0008315A44C2F30B02C2EB01094946304649
S214400D10019300F071F9431C019B00F03F81CBEB3F
S214400D2000024A4442F001021968C7F808B0494434
S214400D30BC42CBF804201960DFF8A49016D0B8F176
S214400D400F0F40F2FD806268A8F10C0323F0070302
S214400D50E01802F001024FF0050E1A430F2B6260B6
S214400D60C0F804E0C0F808E000F21C811D4BBC68E7
S214400D701A68914288BF19601B4B1A689142626894
S214400D8088BF196022F003029542A2EB050301D802
S214400D900F2B04DC304600F02DF9002438E76219AA
S214400DA043F0010345F0010565603046BA60536084
S214400DB000F020F90834204603B0BDE8F08F142B2D
S214400DC071D9542B00F2A480280B00F16F0E4FEA25
S214400DD04E036E3076E600BF2C040020D808002074
S214400DE0DC080020D4080020D00800203808002066
S214400DF05A0A042A5ED9142A00F2B38002F15C0132
S214400E0049005B3207EB810C57F82110DFF8DC8194
S214400E10ACF1080C8C4500F088804A6822F003024A
S214400E20934202D289688C45F7D1D1F80CC07A68D3
S214400E30C4F80CC0A160CCF80840CC6088E66319C2
S214400E4042F0010745F00105656030464B610B6195
S214400E50C3F80CE0C3F808E05F609A50083400F02E
S214400E60C9F8D5E64A6873E608F1010818F0030F9A
S214400E700CF1080C7FF47FAE30E0DC68A34208BF7C
S214400E8002303FF435AEB3E60B440C465A68C968A8
S214400E9054F8085F42F001025A603046E9608D60BF
S214400EA000F0A8F8B4E603F15C0E03F15B004FEAED
S214400EB04E0307E69A0902F1390149003832A1E7A4
S214400EC0BC424A4B3FF400AF9C68626822F0030283
S214400ED05AE759F80839994540F0828010F0030FD8
S214400EE000F1FF30F5D17B6823EA04037B606400A1
S214400EF09C423FF6BDAE002C3FF4BAAE1C42404684
S214400F007FF435AE64001C4200F10400FAD02EE6B1
S214400F10B3F5AA7F18D8E80B00F1780E4FEA4E03D7
S214400F207730CFE54FF48051EBE60121D8F8043016
S214400F30921001FA02F21A43C8F80420614677E795
S214400F400123CBF8043025E740F25452934220D890
S214400F50A80C00F17D0E4FEA4E037C30B2E510320D
S214400F60A4E6542A26D81A0B02F16F0149006E32C5
S214400F7048E7BC68626822F0030205E7CAF30B0044
S214400F8000287FF4A8AE4244BB6842F001025A6093
S214400F90ECE6FE234FF07F0E7E2093E501224FF0D5
S214400FA00009C1E604F108013046FFF779FCD9F89C
S214400FB00010DBE6B2F5AA7F05D8DA0B02F178011D
S214400FC0490077321EE740F254518A4205D89A0CBF
S214400FD002F17D0149007C3214E7FE217E2211E7B2
S214400FE07B6884E7E808431C5B00F8E52C04002097
S214400FF0704700BF704700BF38B5074C0023054612
S21440100008462360FFF790FB431C00D038BD23689A
S214401010002BFBD02B6038BD080900202DE9F04797
S214401020254C2568D5F84841064688469246994656
S214401030C4B360681F2817DC431C76B104EB8005F8
S2144010400122C5F888A0D4F8881182401143022EA8
S214401050C4F88811C5F808911ED00230636044F881
S21440106020800020BDE8F087144B03B34FF4C870CF
S214401070FFF7FEFC0446D0B1D5F84831002780E89B
S2144010808800C5F8484138460123C4F88871C4F83A
S2144010908C71002EE1D0D1E7D4F88C110A43C4F805
S2144010A08C21DAE705F5A674C5F84841C1E74FF04C
S2144010B0FF30BDE8F08700BFC4104000710A400012
S2144010C04300000000000020F8B500BFF8BC08BC94
S2144010D09E467047BD074000F1004000F8B500BF8F
S2104010E0F8BC08BC9E467047CD0040009F
S2144010EC00000000EC02002054030020BC0300204B
S2144010FC000000000000000000000000000000009F
S21440110C000000000000000000000000000000008E
S21440111C00000000C010400000000000000000006E
S21440112C000000000000000000000000000000006E
S21440113C000000000000000000000000000000005E
S21440114C000000000000000000000000000000004E
S21440115C000000000000000000000000000000003E
S21440116C000000000000000000000000000000002E
S21440117C000000000000000000000000000000001E
S21440118C000000000000000001000000000000000D
S21440119C0E33CDAB34126DE6ECDE05000B000000D2
S2144011AC00000000000000000000000000000000EE
S2144011BC00000000000000000000000000000000DE
S2144011CC00000000000000000000000000000000CE
S2144011DC00000000000000000000000000000000BE
S21440150C000000000000000000000020000000006A
S21440151C000000002C0400202C0400203404002082
S21440152C340400203C0400203C04002044040020EA
S21440153C440400204C0400204C040020540400209A
S21440154C540400205C0400205C040020640400204A
S21440155C640400206C0400206C04002074040020FA
S21440156C740400207C0400207C04002084040020AA
S21440157C840400208C0400208C040020940400205A
S21440158C940400209C0400209C040020A40400200A
S21440159CA4040020AC040020AC040020B4040020BA
S2144015ACB4040020BC040020BC040020C40400206A
S2144015BCC4040020CC040020CC040020D40400201A
S2144015CCD4040020DC040020DC040020E4040020CA
S2144015DCE4040020EC040020EC040020F40400207A
S2144015ECF4040020FC040020FC0400200405002029
S2144015FC040500200C0500200C05002014050020D6
S21440160C140500201C0500201C0500202405002085
S21440161C240500202C0500202C0500203405002035
S21440162C340500203C0500203C05002044050020E5
S21440163C440500204C0500204C0500205405002095
S21440164C540500205C0500205C0500206405002045
S21440165C640500206C0500206C05002074050020F5
S21440166C740500207C0500207C05002084050020A5
S21440167C840500208C0500208C0500209405002055
S21440168C940500209C0500209C050020A405002005
S21440169CA4050020AC050020AC050020B4050020B5
S2144016ACB4050020BC050020BC050020C405002065
S2144016BCC4050020CC050020CC050020D405002015
S2144016CCD4050020DC050020DC050020E4050020C5
S2144016DCE4050020EC050020EC050020F405002075
S2144016ECF4050020FC050020FC0500200406002024
S2144016FC040600200C0600200C06002014060020D1
S21440170C140600201C0600201C0600202406002080
S21440171C240600202C0600202C0600203406002030
S21440172C340600203C0600203C06002044060020E0
S21440173C440600204C0600204C0600205406002090
S21440174C540600205C0600205C0600206406002040
S21440175C640600206C0600206C06002074060020F0
S21440176C740600207C0600207C06002084060020A0
S21440177C840600208C0600208C0600209406002050
S21440178C940600209C0600209C060020A406002000
S21440179CA4060020AC060020AC060020B4060020B0
S2144017ACB4060020BC060020BC060020C406002060
S2144017BCC4060020CC060020CC060020D406002010
S2144017CCD4060020DC060020DC060020E4060020C0
S2144017DCE4060020EC060020EC060020F406002070
S2144017ECF4060020FC060020FC060020040700201F
S2144017FC040700200C0700200C07002014070020CC
S21440180C140700201C0700201C070020240700207B
S21440181C240700202C0700202C070020340700202B
S21440182C340700203C0700203C07002044070020DB
S21440183C440700204C0700204C070020540700208B
S21440184C540700205C0700205C070020640700203B
S21440185C640700206C0700206C07002074070020EB
S21440186C740700207C0700207C070020840700209B
S21440187C840700208C0700208C070020940700204B
S21440188C940700209C0700209C070020A4070020FB
S21440189CA4070020AC070020AC070020B4070020AB
S2144018ACB4070020BC070020BC070020C40700205B
S2144018BCC4070020CC070020CC070020D40700200B
S2144018CCD4070020DC070020DC070020E4070020BB
S2144018DCE4070020EC070020EC070020F40700206B
S2144018ECF4070020FC070020FC070020040800201A
S2144018FC040800200C0800200C08002014080020C7
S21440190C140800201C0800201C0800202408002076
S21040191C2408002000000200FFFFFFFF30
S8044006793C
